:1000000000308A0018280000213084008313000883
:10001000031917280630F800F701F70B0D28F80B25
:100020000C287B30F700F70B1328800B0A280800F8
:1000300003081F398300A00183161F149F141F1586
:100040009F1107309C00831383120610831606103D
:1000500083128610831686108312061183160611EA
:1000600083128611831686118312061283160612D6
:1000700083128612831686128312061383160613C2
:1000800083128613831686138312071383160717AA
:1000900083128713831687178312071F5328071BA2
:1000A0004F280130A007871F5928871B552801308A
:1000B000A0022008003C031866282008083C031C06
:1000C00066280614C830A10004206A280610C8302B
:1000D000A10004202008013C031877282008083CD0
:1000E000031C77288614C830A10004207B288610C2
:1000F000C830A10004202008023C031888282008EA
:10010000083C031C88280615C830A10004208C2850
:100110000611C830A10004202008033C03189928C8
:100120002008083C031C99288615C830A10004202B
:100130009D288611C830A10004202008043C031823
:10014000AA282008083C031CAA280616C830A100CB
:100150000420AE280612C830A10004202008053C67
:100160000318BB282008083C031CBB288616C8308F
:10017000A1000420BF288612C830A1000420200856
:10018000063C0318CC282008083C031CCC28061782
:10019000C830A1000420D0280613C830A1000420D4
:1001A0002008083C031DD9288617C830A100042068
:0E01B000DD288613C830A10004204D2863000E
:02400E00323F3F
:00000001FF
;PIC16F877A
;CRC=E370  CREATED="27-Jun-22 14:26"
