:1000000000308A0018280000223084008313000882
:10001000031917280630F800F701F70B0D28F80B25
:100020000C287B30F700F70B1328800B0A280800F8
:1000300003081F39830083161F149F141F159F1177
:1000400007309C0083138312861083168610831258
:1000500006118316061183128611831686118312E8
:1000600006128316061283128612831686128312D4
:1000700006138316061383120710831607108312C4
:1000800087108316871083120711831607118312B6
:10009000871183168711831286140615861106129E
:1000A0008616061707108710071587150430A1005C
:1000B000FA30A2000420A10B5828861006118615DC
:1000C00006168612061307148714071187110430C9
:1000D000A100FA30A2000420A10B69284C2863007B
:02400E00323F3F
:00000001FF
;PIC16F877A
;CRC=51C5  CREATED="24-Jun-22 15:21"
