:1000000000308A0018280000223084008313000882
:10001000031917280630F800F701F70B0D28F80B25
:100020000C287B30F700F70B1328800B0A280800F8
:1000300003081F39830083161F149F141F159F1177
:1000400007309C0083138312061083160610831258
:10005000861083168610831206140430A100FA302D
:10006000A2000420A10B2F2806100430A100FA30B2
:10007000A2000420A10B372886140430A100FA3016
:10008000A2000420A10B3F2886100430A100FA3002
:0C009000A2000420A10B47282C286300CC
:02400E00323F3F
:00000001FF
;PIC16F877A
;CRC=4FE2  CREATED="25-Jun-22 09:42"
