:100000000C9462000C948A000C948A000C948A0070
:100010000C948A000C948A000C948A000C948A0038
:100020000C948A000C948A000C948A000C948A0028
:100030000C948A000C948A000C948A000C948A0018
:100040000C945B030C948A000C948A000C948A0034
:100050000C948A000C948A000C948A000C948A00F8
:100060000C948A000C948A000000000024002700F1
:100070002A0000000000250028002B0000000000DE
:1000800023002600290004040404040404040202DA
:100090000202020203030303030301020408102007
:1000A0004080010204081020010204081020000012
:1000B0000008000201000003040700000000000027
:1000C0000000C60411241FBECFEFD8E0DEBFCDBFB5
:1000D00011E0A0E0B1E0ECE1FAE002C005900D9281
:1000E000A631B107D9F721E0A6E1B1E001C01D9228
:1000F000AD33B207E1F710E0C2E6D0E004C02197CB
:10010000FE010E940605C136D107C9F70E94A5036A
:100110000C940C050C940000AF92BF92CF92DF922A
:10012000EF92FF920F931F93CF93DF936C017B01AC
:100130008B01040F151FEB015E01AE18BF08C0173D
:10014000D10759F06991D601ED91FC910190F081B0
:10015000E02DC6010995892B79F7C501DF91CF9173
:100160001F910F91FF90EF90DF90CF90BF90AF90D5
:100170000895833081F028F4813099F08230A9F01D
:1001800008958730A9F08830C9F08430B1F48091A7
:1001900080008F7D03C0809180008F7780938000E6
:1001A000089584B58F7784BD089584B58F7DFBCF86
:1001B0008091B0008F778093B00008958091B00057
:1001C0008F7DF9CFCF93DF93282F30E0F901E255EF
:1001D000FF4F8491F901E656FF4FD491F901EA5798
:1001E000FF4FC491CC23A1F081110E94B900EC2FE4
:1001F000F0E0EE0FFF1FE458FF4FA591B491EC9192
:10020000ED2381E090E009F480E0DF91CF91089543
:1002100080E090E0FACF1F93CF93DF93282F30E058
:10022000F901E255FF4F8491F901E656FF4FD49151
:10023000F901EA57FF4FC491CC23A9F0162F811181
:100240000E94B900EC2FF0E0EE0FFF1FEE58FF4FB9
:10025000A591B4918FB7F894EC91111108C0D09585
:10026000DE23DC938FBFDF91CF911F910895DE2BAA
:10027000F8CFCF93DF9390E0FC01E656FF4F249137
:100280008A579F4FFC0184918823D1F090E0880F1A
:10029000991FFC01E859FF4FA591B491FC01EE585C
:1002A000FF4FC591D49161110EC09FB7F8948C9106
:1002B000E22FE0958E238C932881E223E8839FBF71
:1002C000DF91CF9108958FB7F894EC91E22BEC93E6
:1002D0008FBFF6CF3FB7F89480911B0190911C011E
:1002E000A0911D01B0911E0126B5A89B05C02F3F0E
:1002F00019F00196A11DB11D3FBFBA2FA92F982F4C
:100300008827BC01CD01620F711D811D911D42E046
:10031000660F771F881F991F4A95D1F708958F920E
:100320009F92AF92BF92CF92DF92EF92FF924B01DA
:100330005C010E946A016B017C010E946A016C19D8
:100340007D098E099F09683E734081059105A8F3D8
:1003500021E0821A9108A108B10888EEC80E83E056
:10036000D81EE11CF11C81149104A104B10429F7E9
:10037000FF90EF90DF90CF90BF90AF909F908F90C5
:100380000895089590E080E008958F929F92AF9233
:10039000BF920F931F93CF93DF93CDB7DEB7A19793
:1003A0000FB6F894DEBF0FBECDBF19A2423008F4DD
:1003B0004AE08E010F5D1F4F842E912CB12CA12C91
:1003C000A50194010E94E404E62FB901CA01EA30B4
:1003D00044F5E05DD801EE938D01232B242B252BD2
:1003E00079F790E080E0109769F0FD01019000201E
:1003F000E9F73197AF014A1B5B0BBD0185E291E044
:100400000E948C00A1960FB6F894DEBF0FBECDBF40
:10041000DF91CF911F910F91BF90AF909F908F90E0
:100420000895E95CD7CFCF93DF93EC0160E08E8134
:100430000E940B0161E08E810E940B0160E08E81C1
:100440000E940B018BE891E00197F1F7DF91CF91CA
:100450000895CF92DF92EF92FF920F931F93CF9365
:10046000DF936C017C0187E0E80EF11CD0E0C0E076
:10047000062F10E0B8010C2E02C0759567950A94FE
:10048000E2F76170F70181917F010E940B012196D3
:10049000C430D10579F7C601DF91CF911F910F913B
:1004A000FF90EF90DF90CF900C941302CF92DF92E9
:1004B000EF92FF920F931F93CF93DF93EC01F62EF1
:1004C000642F8C810E940B018D818F3F19F060E0B9
:1004D0000E940B010F2D10E08F8584FF25C06E0157
:1004E00087E0C80ED11CF12CE12CB8010E2C02C003
:1004F000759567950A94E2F76170F60181916F0135
:100500000E940B01FFEFEF1AFF0A88E0E816F104E2
:1005100061F7CE01DF91CF911F910F91FF90EF9086
:10052000DF90CF900C941302B80184E07595679525
:100530008A95E1F7CE010E9429026F2DCE01DF914D
:10054000CF911F910F91FF90EF90DF90CF900C947F
:10055000290240E0682F85E291E00C945602CF9387
:10056000DF93823029F490913401986090933401A4
:10057000809338011092390180E480933A0180E140
:1005800080933B0180E580933C0161E080912901EB
:100590000E94390180912A018F3F19F061E00E9489
:1005A000390161E080912B010E943901C5E2D1E05F
:1005B0009E01255231408091340184FD0BC084E0BE
:1005C00090E021962817390744F461E08E810E945B
:1005D0003901EECF88E090E0F4CF8BE39DE0019706
:1005E000F1F760E0809129010E940B0160E08091A9
:1005F0002B010E940B0180912A018F3F19F060E0CE
:100600000E940B018091340184FD39C063E085E2D2
:1006100091E00E942902CBE4D6E4CE010197F1F7E4
:1006200063E085E291E00E9429022197F1F763E0FF
:1006300085E291E00E94290283E592E00197F1F7BB
:1006400062E085E291E00E9429028091340180629B
:100650000E94A90284E0809335018CE00E94A902E7
:1006600081E00E94A9028BE39FE10197F1F782E00C
:100670008093360186E0DF91CF910C94A9028062CD
:100680000E94A9028BE496E40197F1F7809134016E
:1006900080620E94A90283E592E00197F1F78091C0
:1006A000340180620E94A902D0CF41E00E9456022C
:1006B00081E090E008951F920F920FB60F921124DF
:1006C0002F933F938F939F93AF93BF938091170185
:1006D00090911801A0911901B0911A013091160161
:1006E00023E0230F2D3758F50196A11DB11D20934E
:1006F00016018093170190931801A0931901B093EC
:100700001A0180911B0190911C01A0911D01B091D3
:100710001E010196A11DB11D80931B0190931C0128
:10072000A0931D01B0931E01BF91AF919F918F9136
:100730003F912F910F900FBE0F901F90189526E8B4
:10074000230F0296A11DB11DD2CF789484B582608B
:1007500084BD84B5816084BD85B5826085BD85B565
:10076000816085BD80916E00816080936E001092E3
:10077000810080918100826080938100809181005E
:1007800081608093810080918000816080938000EF
:100790008091B10084608093B1008091B00081604D
:1007A0008093B00080917A00846080937A00809179
:1007B0007A00826080937A0080917A0081608093D1
:1007C0007A0080917A00806880937A001092C1004C
:1007D00082E00E94AF0260E080E00E94390160E0A8
:1007E00081E00E94390161E082E00E94390161E00C
:1007F00083E00E94390161E084E00E94390100E059
:1008000010E0C1E0D0E080E00E94E200019751F5E5
:100810008091230190912401892BB9F480E00E94FA
:10082000E2007C0164E670E080E090E00E948F01CD
:10083000EF2871F7D0932401C093230168E572E09B
:1008400080E090E00E948F01E3CF809121019091A0
:10085000220101969093220180932101109224019C
:100860001092230181E00E94E200019751F58091EE
:100870001F0190912001892BB9F481E00E94E200D0
:100880007C0164E670E080E090E00E948F01EF2838
:1008900071F7D0932001C0931F0168E572E080E0FA
:1008A00090E00E948F01E3CF80912101909122017D
:1008B00001979093220180932101109220011092C0
:1008C0001F01E1E0809138018111E0E0E195F0E065
:1008D000EB5DFE4F848980680E94A90248E050E0E9
:1008E0006CE071E085E291E00E948C00C0902101F3
:1008F000D09022010D2C000CEE08FF084AE0C70141
:10090000B601F7FE0EC041E06DE285E291E00E9483
:10091000560266277727CB016C197D098E099F093E
:100920004AE00E94C5016CEB72E080E090E00E941A
:100930008F01E0902101F09022011E141F046CF43D
:1009400061E082E00E940B0185E0E816F10454F4B6
:1009500060E083E00E940B010EC060E082E00E9434
:100960000B01F6CF61E083E00E940B0161E088E0BB
:10097000E816F1040CF460E084E00E940B0101151C
:10098000110509F440CF0E9400003DCFE5E2F1E0FF
:100990001382128284E091E0918380838DE08483CE
:1009A0008FEF85838CE086838BE087838AE0808766
:1009B00089E0818788E082871386148615861686EB
:1009C000178681E00C94AF02A1E21A2EAA1BBB1B72
:1009D000FD010DC0AA1FBB1FEE1FFF1FA217B3070B
:1009E000E407F50720F0A21BB30BE40BF50B661F21
:1009F000771F881F991F1A9469F7609570958095E5
:100A000090959B01AC01BD01CF010895EE0FFF1F32
:0C0A10000590F491E02D0994F894FFCFBC
:100A1C000000000055038C00C201C101436F756ECC
:060A2C0074203D200000D3
:00000001FF
