:100000000C945D000C9485000C9485000C94850084
:100010000C9485000C9485000C9485000C9485004C
:100020000C9485000C9485000C9485000C9485003C
:100030000C9485000C9485000C9485000C9485002C
:100040000C947D020C9485000C9485000C94850022
:100050000C9485000C9485000C9485000C9485000C
:100060000C9485000C9485000000000024002700FB
:100070002A0000000000250028002B0004040404CE
:100080000404040402020202020203030303030342
:10009000010204081020408001020408102001021F
:1000A00004081020000000080002010000030407FB
:1000B0000000000000000000980311241FBECFEFD5
:1000C000D8E0DEBFCDBF11E0A0E0B1E0E0ECF7E0AA
:1000D00002C005900D92AC30B107D9F721E0ACE039
:1000E000B1E001C01D92AD32B207E1F710E0CDE5FD
:1000F000D0E004C02197FE010E94D803CC35D1077F
:10010000C9F70E94C7020C94DE030C940000AF9262
:10011000BF92CF92DF92EF92FF920F931F93CF93F4
:10012000DF936C017B018B01040F151FEB015E0156
:10013000AE18BF08C017D10759F06991D601ED91EB
:10014000FC910190F081E02DC6010995892B79F78A
:10015000C501DF91CF911F910F91FF90EF90DF903C
:10016000CF90BF90AF90089590E0FC01EC55FF4F09
:100170002491FC01E057FF4F3491FC01E458FF4FFC
:10018000E491EE23C9F0222339F0233001F1A8F4E1
:10019000213019F1223029F1F0E0EE0FFF1FEE5867
:1001A000FF4FA591B4918FB7F894EC91611126C0DF
:1001B00030953E233C938FBF08952730A9F0283017
:1001C000C9F0243049F7809180008F7D03C0809171
:1001D00080008F7780938000DFCF84B58F7784BDD8
:1001E000DBCF84B58F7DFBCF8091B0008F7780937C
:1001F000B000D2CF8091B0008F7DF9CF3E2BDACF07
:10020000CF93DF9390E0FC01E057FF4F2491845897
:100210009F4FFC0184918823D1F090E0880F991FB3
:10022000FC01E859FF4FA591B491FC01EE58FF4F36
:10023000C591D49161110EC09FB7F8948C91E22FB3
:10024000E0958E238C932881E223E8839FBFDF9182
:10025000CF9108958FB7F894EC91E22BEC938FBF78
:10026000F6CF089590E080E00895CF93DF93EC01FE
:1002700060E08E810E94B40061E08E810E94B40033
:1002800060E08E810E94B4008BE891E00197F1F765
:10029000DF91CF910895CF92DF92EF92FF920F936B
:1002A0001F93CF93DF936C017C0187E0E80EF11C74
:1002B000D0E0C0E0062F10E0B8010C2E02C075950A
:1002C00067950A94E2F76170F70181917F010E94BE
:1002D000B4002196C430D10579F7C601DF91CF91E2
:1002E0001F910F91FF90EF90DF90CF900C9435010C
:1002F000CF92DF92EF92FF920F931F93CF93DF93F2
:10030000EC01F62E642F8C810E94B4008D818F3F0A
:1003100019F060E00E94B4000F2D10E08F8584FF7B
:1003200025C06E0187E0C80ED11CF12CE12CB8016C
:100330000E2C02C0759567950A94E2F76170F6017C
:1003400081916F010E94B400FFEFEF1AFF0A88E06D
:10035000E816F10461F7CE01DF91CF911F910F9163
:10036000FF90EF90DF90CF900C943501B80184E0BE
:10037000759567958A95E1F7CE010E944B016F2D27
:10038000CE01DF91CF911F910F91FF90EF90DF9001
:10039000CF900C944B0140E0682F85E191E00C94E4
:1003A0007801CF93DF93823029F4909124019860F3
:1003B00090932401809328011092290180E4809376
:1003C0002A0180E180932B0180E580932C0161E07C
:1003D000809119010E94000180911A018F3F19F04C
:1003E00061E00E94000161E080911B010E94000118
:1003F000C5E1D1E09E01255131408091240184FD69
:100400000BC084E090E021962817390744F461E09E
:100410008E810E940001EECF88E090E0F4CF8BE364
:100420009DE00197F1F760E0809119010E94B4000E
:1004300060E080911B010E94B40080911A018F3FFF
:1004400019F060E00E94B4008091240184FD39C05D
:1004500063E085E191E00E944B01CBE4D6E4CE015C
:100460000197F1F763E085E191E00E944B0121974C
:10047000F1F763E085E191E00E944B0183E592E0B2
:100480000197F1F762E085E191E00E944B018091D4
:10049000240180620E94CB0184E0809325018CE0DE
:1004A0000E94CB0181E00E94CB018BE39FE1019789
:1004B000F1F782E08093260186E0DF91CF910C94E2
:1004C000CB0180620E94CB018BE496E40197F1F7A7
:1004D0008091240180620E94CB0183E592E0019724
:1004E000F1F78091240180620E94CB01D0CF41E0DE
:1004F0000E94780181E090E008951F920F920FB65C
:100500000F9211242F933F938F939F93AF93BF9399
:100510008091110190911201A0911301B0911401E9
:100520003091100123E0230F2D3758F50196A11DBE
:10053000B11D209310018093110190931201A0939B
:100540001301B093140180910C0190910D01A091C1
:100550000E01B0910F010196A11DB11D80930C01F8
:1005600090930D01A0930E01B0930F01BF91AF9135
:100570009F918F913F912F910F900FBE0F901F90E1
:10058000189526E8230F0296A11DB11DD2CFCF9357
:10059000DF93CDB7DEB7A1970FB6F894DEBF0FBEDD
:1005A000CDBF789484B5826084BD84B5816084BDFC
:1005B00085B5826085BD85B5816085BD80916E0001
:1005C000816080936E001092810080918100826032
:1005D000809381008091810081608093810080916F
:1005E00080008160809380008091B100846080935E
:1005F000B1008091B00081608093B00080917A005A
:10060000846080937A0080917A00826080937A007F
:1006100080917A00816080937A0080917A0080686E
:1006200080937A001092C10082E00E94D10160E0C4
:100630008EE00E94000180E4D82E9AE0892E912C51
:10064000A12CB12C20E0E22E20E0F22ED0927C00F2
:1006500080917A00806480937A0080917A0086FD90
:10066000FCCF8091780000917900102F082FE1E0F5
:10067000809128018111E0E0E195F0E0EB5EFE4F12
:1006800084898F5F80680E94CB012801012E000CB5
:100690006608770817FF36C041E06DE285E191E01A
:1006A0000E94780122273327A90124193509460918
:1006B000570919A28E010F5D1F4FCA01B901A5018B
:1006C00094010E94B603605DF80162938F012115C9
:1006D00031054105510589F70115110561F00190BA
:1006E0000020E9F73197AF01401B510BB80185E1BC
:1006F00091E00E948700E114F10409F4A7CF0E9461
:100700000000A4CFA301920119A28E010F5D1F4F1B
:10071000CA01B901A50194010E94B603605DF80108
:1007200062938F01211531054105510589F7D4CF19
:10073000E5E1F1E01382128284E091E0918380830D
:100740008DE084838FEF85838CE086838BE08783C5
:100750008AE0808789E0818788E082871386148613
:1007600015861686178681E00C94D101A1E21A2E17
:10077000AA1BBB1BFD010DC0AA1FBB1FEE1FFF1F45
:10078000A217B307E407F50720F0A21BB30BE40B95
:10079000F50B661F771F881F991F1A9469F76095DC
:1007A0007095809590959B01AC01BD01CF01089596
:1007B000EE0FFF1F0590F491E02D0994F894FFCF00
:0C07C000000000007702870032013101C8
:00000001FF
