:100000000C945C000C9479000C9479000C947900A9
:100010000C9479000C9479000C9479000C9479007C
:100020000C9479000C9479000C9479000C9479006C
:100030000C9479000C9479000C9479000C9479005C
:100040000C94E6000C9479000C9479000C947900DF
:100050000C9479000C9479000C9479000C9479003C
:100060000C9479000C947900000000080002010053
:100070000003040700000000000000000000000072
:10008000250028002B0000000000240027002A0083
:10009000040404040404040402020202020203032E
:1000A0000303030301020408102040800102040836
:1000B000102001020408102011241FBECFEFD8E049
:1000C000DEBFCDBF11E0A0E0B1E0E8E0F4E002C0A7
:1000D00005900D92A230B107D9F721E0A2E0B1E07E
:1000E00001C01D92AD30B207E1F70E9430010C94BF
:1000F00002020C94000090E0FC01EC55FF4F2491AB
:1001000080579F4FFC018491882399F090E0880FDD
:10011000991FFC01EA57FF4FA591B491FC01E458E7
:10012000FF4F859194918FB7F894EC91E22BEC936B
:100130008FBF089590E0FC01E859FF4F2491FC0126
:10014000EC55FF4F3491FC01E057FF4FE491EE2353
:10015000C9F0222339F0233001F1A8F4213019F13C
:10016000223029F1F0E0EE0FFF1FE458FF4FA59178
:10017000B4918FB7F894EC91611126C030953E236D
:100180003C938FBF08952730A9F02830C9F0243060
:1001900049F7809180008F7D03C0809180008F7728
:1001A00080938000DFCF84B58F7784BDDBCF84B5AB
:1001B0008F7DFBCF8091B0008F778093B000D2CF3E
:1001C0008091B0008F7DF9CF3E2BDACF1F920F9236
:1001D0000FB60F9211242F933F938F939F93AF935A
:1001E000BF938091090190910A01A0910B01B091F8
:1001F0000C013091080123E0230F2D3758F50196AB
:10020000A11DB11D209308018093090190930A015B
:10021000A0930B01B0930C01809104019091050112
:10022000A0910601B09107010196A11DB11D809317
:10023000040190930501A0930601B0930701BF91BB
:10024000AF919F918F913F912F910F900FBE0F9083
:100250001F90189526E8230F0296A11DB11DD2CF3D
:10026000789484B5826084BD84B5816084BD85B591
:10027000826085BD85B5816085BD80916E0081609D
:1002800080936E0010928100809181008260809343
:100290008100809181008160809381008091800045
:1002A0008160809380008091B10084608093B10070
:1002B0008091B00081608093B00080917A0084606A
:1002C00080937A0080917A00826080937A00809196
:1002D0007A00816080937A0080917A0080688093B0
:1002E0007A001092C1008DE00E947B0050E4D52E70
:1002F00065E7E62E60E0F62E00E010E0D0927C008C
:1003000080917A00806480937A0080917A0086FDE3
:10031000FCCF80917800C0917900DC2FC82FD0935A
:100320000301C09302018DE00E947B00209721F51C
:1003300060E08DE00E949A0080910201909103019B
:100340008115F2E09F0750F42091000130910101E6
:10035000220F331F30930101209300019250811529
:10036000924020F410920101109200010115110534
:1003700029F20E940000C2CFCF3FD10511F461E005
:10038000D8CFF7018491833019F140F48130B1F076
:100390008230C9F0C038D10594F7CACF873011F147
:1003A000883041F18430B1F7809180008062809381
:1003B0008000D0938B00C0938A00BECF84B5806844
:1003C00084BDC7BDB9CF84B5806284BDC8BDB4CF7C
:1003D00080918000806880938000D0938900C093D2
:1003E0008800AACF8091B00080688093B000C0934D
:1003F000B300A2CF8091B00080628093B000C09320
:08040000B4009ACFF894FFCF7D
:020408000500ED
:00000001FF
