:1000000000308A00612800002E308400831300082D
:10001000031917280630F800F701F70B0D28F80B25
:100020000C287B30F700F70B1328800B0A280800F8
:100030002C0888002D1C07132D180717871703306D
:10004000AE00042087130330AE0004200800F8013E
:10005000F901F701FA012E08031D31282D080319B3
:100060004B281030AF000310AB0DAC0DF70DFA0D9F
:100070002E087A02031D3E282D087702031C47280C
:100080002D08F702031CFA032E08FA020314F80DD8
:10009000F90DAF0B332808002C08F8012B020318C8
:1000A00054282B08F7006028F7010830AD00AB0D8D
:1000B000F70D2C0877020318F700F80DAD0B572841
:1000C000080003081F39830083161F149F141F158F
:1000D0009F1107309C008313013083129F00880119
:1000E00007138713831687138801071380309F0037
:1000F00083121F151F197A281F153830AC00AD0167
:1001000018200E30AC00AD011820C030AC00AD019D
:100110001820A4011E08A300003083161E048312B9
:10012000A1002308A2002208AC002108AB00033084
:10013000AE00E830AD0027207808A5002208AC000A
:100140002108AB000330AE00E830AD00272077086F
:10015000A6002608AB006430AC004C207808A7004D
:100160002608AB006430AC004C207708A8002808B3
:10017000AB000A30AC004C207808A9002808AB007E
:100180000A30AC004C207708AA0030302507AB00BD
:10019000AC000130AD00182030302707AB00AC00B8
:1001A0000130AD00182030302907AB00AC00013021
:1001B000AD00182030302A07AB00AC000130AD0094
:0601C000182079286300FD
:02400E00323F3F
:00000001FF
;PIC16F877A
;CRC=2CCE  CREATED="27-Jun-22 16:39"
