:1000000000308A0057280000313084008313000834
:10001000031917280630F800F701F70B0D28F80B25
:100020000C287B30F700F70B1328800B0A280800F8
:100030002F088800301C0713301807178717C8309F
:10004000B100042087130800AD012D082B078400A0
:1000500083132C188317800803193F282D082B07BA
:10006000840083132C1883170008AE00AF00013002
:10007000B0001820C830B1000420AD0A25288A112C
:100080000A12A9282C08F8012B0203184A282B0869
:10009000F7005628F7010830AD00AB0DF70D2C081E
:1000A00077020318F700F80DAD0B4D280800030880
:1000B0001F398300AA0183161F149F141F159F1157
:1000C00007309C00831343308312A0004F30A100FF
:1000D0005530A2004E30A3005430A4002030A500BB
:1000E0003A30A6002030A700A80107108316071495
:1000F0008312871083168714831288018316880160
:10010000831207138316071383128713831687132B
:10011000831206108316061083128610831686102B
:100120008312061183160611831286118316861117
:100130000C308312AF00B00118203830AF00B0018E
:1001400018208030AF00B0011820AC012030AB0087
:100150002428071CAF280718AB280130AA07871CE2
:10016000B5288718B1280130AA028930AF00B00144
:1001700018202A08AB000A30AC0042203030780743
:10018000AB00AF000130B00018208A30AF00B001E2
:1001900018202A08AB000A30AC0042203030770724
:1001A000AB00AF000130B00018202A08003C031853
:1001B000DB280614DC2806102A08043C0318E22871
:1001C0008614E32886102A08073C0318E928061538
:1001D000EA2806112A08093C0318F0288615F12898
:0601E0008611A128630056
:02400E00323F3F
:00000001FF
;PIC16F877A
;CRC=B9A5  CREATED="27-Jun-22 14:29"
