:1000000000308A00412800002F308400831300084C
:10001000031917280630F800F701F70B0D28F80B25
:100020000C287B30F700F70B1328800B0A280800F8
:100030002D0888002E1C06102E1806148614C830B1
:10004000AF0004208610C830AF00042008008C1ECA
:1000500027288C121A08AC008030AD00AE011820A1
:100060002C08AD000130AE001820C830AF000420CD
:100070008A110A1287282D0899000C1E3D280C129F
:10008000080003081F39830083161F149F141F15CF
:100090009F1107309C00831345308312A00043302A
:1000A000A1004530A2005F30A3005130A4004930C8
:1000B000A5005330A6004330A7004530A8005430B7
:1000C000A900AA01880183168801831206108316ED
:1000D00006108312861083168610071387170C30BC
:1000E0008312AD00AE0118203830AD00AE011820EB
:1000F0008030AD00AE011820243083169800903077
:100100008312980081308316990083122728C0300B
:10011000AD00AE011820AB0120302B078400831303
:1001200080080319A72820302B07840083130008B8
:10013000AC00AD003B2020302B0784008313000867
:10014000AC00AD000130AE001820AB0A8C280D3099
:0E015000AD003B20C830AF00042086286300BD
:02400E00323F3F
:00000001FF
;PIC16F877A
;CRC=B72D  CREATED="02-Jul-22 20:59"
