:1000000000308A0043280000303084008313000849
:10001000031917280630F800F701F70B0D28F80B25
:100020000C287B30F700F70B1328800B0A280800F8
:100030002E0888002F1C06102F1806148614C830AE
:10004000B00004208610C830B000042008008C1EC8
:1000500027288C121A08AB008030AE00AF011820A0
:100060002B08AE000130AF001820C830B0000420CB
:100070002B08F8008A110A12A1282E0899000C1EDC
:100080003F280C12080003081F39830083161F1431
:100090009F141F159F1107309C0083134530831256
:1000A000A0004330A1004530A2005F30A3005130D2
:1000B000A4004930A5005330A6004330A7004530C6
:1000C000A8005430A900AA01061183160611831254
:1000D0008611831686118312061283160612831266
:1000E0008612831686128312061383160613831252
:1000F0008613831686138312880183168801831260
:1001000006108316061083128610831686100713B6
:1001100087170C308312AE00AF0118203830AE00C4
:10012000AF0118208030AE00AF01182026308316B2
:1001300098009030831298008130831699008312C2
:1001400027282B08303C0318A7280615A8280611D5
:100150002B08313C0318AE288615AF2886112B08D2
:10016000323C0318B5280616B62806122B08333C75
:100170000318BC288616BD2886122B08343C0318A9
:10018000C3280617C42806132B08353C0318CA28B1
:100190008617CB288613C030AE00AF011820AC0103
:1001A00020302C078400831380080319EB282030AB
:1001B0002C07840083130008AD00AE003D202030E2
:1001C0002C07840083130008AD00AE000130AF009F
:1001D0001820AC0AD0280D30AE003D20C830B00049
:0601E0000420A0286300CA
:02400E00323F3F
:00000001FF
;PIC16F877A
;CRC=3E8E  CREATED="03-Jul-22 18:44"
