:1000000000308A002228000021088800221C0710E6
:10001000221807148714C830A300233084008313E8
:100020000008031920280630F800F701F70B1628FE
:10003000F80B15287B30F700F70B1C28800B1328D2
:100040008710080003081F39830083161F149F14AC
:100050001F159F1107309C0083138312880183169C
:1000600088018312071083160710831287108316E6
:1000700087100C308312A100A20104203830A100A7
:10008000A20104208030A100A20104205130A1006F
:100090000130A20004208130A100A20104204930D7
:1000A000A1000130A20004208230A100A20104209E
:1000B0005330A1000130A20004208330A100A2012E
:1000C00004204330A1000130A20004208430A100AC
:1000D000A20104204530A1000130A2000420853097
:1000E000A100A20104205430A1000130A20004208C
:1000F000C030A100A20104204530A1000130A200BF
:100100000420C130A100A20104204330A10001302D
:10011000A2000420C230A100A20104204530A100A9
:0A0120000130A20004204228630011
:02400E00323F3F
:00000001FF
;PIC16F877A
;CRC=3683  CREATED="01-Jul-22 17:37"
