:1000000000308A00422800002E308400831300084C
:10001000031917280630F800F701F70B0D28F80B25
:100020000C287B30F700F70B1328800B0A280800F8
:100030002C0888002D1C07102D1807148714C830B1
:10004000AE00042087100800AA012A0828078400AF
:10005000831329188317800803193F282A082807C3
:1000600084008313291883170008AB00AC0001300B
:10007000AD001820C830AE000420AA0A25288A1135
:100080000A12772803081F39830083161F149F1450
:100090001F159F1107309C00831351308312A0005D
:1000A0004930A1005330A2004330A3004530A400E2
:1000B0005430A500A6018801831688018312071019
:1000C0008316071083128710831687100C30831253
:1000D000AC00AD0118203830AC00AD0118208530DF
:1000E000AC00AD011820A9012030A80024286F28F9
:0200F0006300AB
:02400E00323F3F
:00000001FF
;PIC16F877A
;CRC=3280  CREATED="25-Jun-22 15:35"
